:020000040800F2
:1000000068060020890100084707000893020008DD
:10001000450700088F020008EF07000800000000F5
:100020000000000000000000000000004B07000876
:100030009102000800000000490700084D07000871
:10004000A3010008A3010008A3010008A301000800
:10005000A3010008A3010008A3010008A3010008F0
:10006000A3010008A3010008A3010008A3010008E0
:10007000A3010008A3010008A3010008A3010008D0
:10008000A3010008A3010008A3010008A3010008C0
:10009000A3010008A3010008A3010008A3010008B0
:1000A000A3010008A3010008A3010008A3010008A0
:1000B000A3010008A3010008A3010008A301000890
:1000C000A3010008A3010008A3010008A301000880
:1000D000A3010008A3010008A3010008A301000870
:1000E000A3010008A3010008A301000800F002F822
:1000F00000F03AF80AA090E8000C82448344AAF188
:100100000107DA4501D100F02FF8AFF2090EBAE885
:100110000F0013F0010F18BFFB1A43F0010318473B
:1001200090070000B0070000103A24BF78C878C1DB
:10013000FAD8520724BF30C830C144BF04680C60ED
:10014000704700000023002400250026103A28BF35
:1001500078C1FBD8520728BF30C148BF0B60704739
:100160001FB51FBD10B510BD00F058F81146FFF7C0
:10017000F7FF00F03DFB00F076F803B4FFF7F2FF65
:1001800003BC00F07DF8000009488047094800479B
:10019000FEE7FEE7FEE7FEE7FEE7FEE7FEE7FEE737
:1001A000FEE7FEE704480549054A064B7047000094
:1001B000ED070008ED000008680000206806002038
:1001C00068020020680200204FF0000200B51346CC
:1001D00094469646203922BFA0E80C50A0E80C5067
:1001E000B1F12001BFF4F7AF090728BFA0E80C5018
:1001F00048BF0CC05DF804EB890028BF40F8042B11
:1002000008BF704748BF20F8022B11F0804F18BF7D
:1002100000F8012B7047704770477047754600F033
:100220002BF8AE4605006946534620F00700854688
:1002300018B020B5FFF7B6FFBDE820404FF000062C
:100240004FF000074FF000084FF0000B21F00701BE
:10025000AC46ACE8C009ACE8C009ACE8C009ACE801
:10026000C0098D46704710B50446AFF300802046A4
:10027000BDE81040FFF781BF004870470400002030
:1002800001491820ABBEFEE7260002007047FEE7DA
:100290007047FEE7044908B58A6902438A618969A3
:1002A0000140009108BD000000100240044908B55B
:1002B0008A6902438A6189690140009108BD000092
:1002C00000100240F0B50A68C2F30F2595FAA5F2B6
:1002D000B2FA82F369E001229A402A4264D0082BE4
:1002E00003D240F201129A4006E0A3F108024FF057
:1002F0000114944044F080624C68082C0BD10C69C6
:10030000C668170A97FAA7F7B7FA87F726EA1226F8
:10031000BC402643C66092FAA2F700EB1264B7FA1B
:1003200087F74FEA870C0F27266807FA0CF7BE43BA
:1003300092FAA2F7D1F804E0B7FA87F7BF000EFAF5
:1003400007FE46EA0E0626604F68012F01D0092FEE
:100350002AD192FAA2F7B7FA87F74FEA870C032758
:1003600007FA0CF7BE4392FAA2F7B7FA87F7D1F86B
:1003700008E0BF000EFA07FE92FAA2FC46EA0E065B
:10038000BCFA8CFC4FEA8C0E4FF0040C26600CFA81
:100390000EFC92FAA2F2B2FA82F2CF68920026EA3A
:1003A0000C0697403E4326605B1C35FA03F292D15F
:1003B0000020F0BD4FF47A71B0FBF1F14FF0E02076
:1003C000491E4161002181610521016170470000E2
:1003D0000149086070470000000000200A7B8B681C
:1003E0001A434B6822F480621A430B6822F40062BD
:1003F0001A43CB8922F480521A430B6922F400522B
:100400001A43496922F480420A434264002070473B
:10041000F0B50268154B164C164D4FF080469842C9
:1004200005D0B04203D0A04201D0A84203D14F680A
:1004300022F070023A43984205D0B04203D0A04265
:1004400001D0A84203D1CC6822F44072224302605A
:100450008A68C2620A888262984201D1096901638E
:10046000416941F0010141610020F0BD002C0140D3
:100470000004004000080040F0B501250023604C56
:10048000012908D0102933D0B1F5807F64D0B1F5AF
:10049000805F5FD190E0016A21F001010162016A91
:1004A00045688669176826F073063E43176921F090
:1004B00002013943576821F001013943A04212D1AA
:1004C000546921F0080141EA8401946821F0040193
:1004D00041EA840125F4807495692C43D56924F49C
:1004E000007444EA450545608661D26842632FE0A6
:1004F000016A21F010010162016A45688669176886
:1005000026F4E64646EA0726176921F0200141EA6B
:100510000711576821F0100141EA0711A04213D1D9
:10052000546921F0800141EA8411946821F040016E
:1005300041EA841125F48064956944EA8504D5690B
:1005400024F4006444EAC50545608661D26882638C
:1005500001621D462846F0BD016A21F480710162E6
:10056000016A4568C669176826F073063E43176935
:1005700021F4007141EA0721576821F4807141EAB2
:100580000721A04213D1546921F4006141EA84217A
:10059000946821F4806141EA842125F480549569AE
:1005A00044EA0514D56924F4005444EA451545602D
:1005B000C661D268C263CBE7016A21F4805101624F
:1005C000056A4168C669176826F4E64646EA0726C2
:1005D000176925F4005545EA0735576825F4805515
:1005E00045EA0735A04204D1946921F4804141EAEB
:1005F00084114160C661D16801640562A9E7000009
:10060000002C014000B585B014216846FFF7DCFDE1
:100610001020FFF73FFE2020FFF73CFE0420FFF7ED
:1006200039FE094807494FF4005202610091012147
:10063000019102210291002103916946FFF742FED8
:1006400005B000BD2000200400100140F0B599B0B5
:1006500014210EA8FFF7B8FD20216846FFF7B4FD6E
:10066000182108A8FFF7B0FD142113A8FFF7ACFD6F
:100670004FF40060FFF71AFE4720ADF83800002461
:100680006320CDE90F402B4D11940EA928461294FA
:10069000FFF7BEFE286820F080002860A86844F2BA
:1006A00007018843A86024480178224818300E18B2
:1006B0003068214F0821FF1D3A789140084330608F
:1006C0006020CDE9000402940394049405940694F8
:1006D0006A46012128460794FFF7CEFE30683A7833
:1006E0000421914088433060686820F070006860A1
:1006F000A86820F08000A86008946814CDE90C0474
:100700008DF82C4009940A94ADF82E4008A928468B
:10071000FFF764FE0420FFF7C9FD08481390092085
:1007200014900220CDE9150413A90548FFF7CAFD6E
:1007300019B0F0BD002C0140A00800080100010420
:1007400000080140FEE7FEE7704770477047000071
:10075000234810B5016821F0070141F00201016052
:10076000016801F007010229FAD11E48016841F42D
:10077000803101600168C1F340410029FAD041682D
:1007800021F47C1141F4E8114160016841F080716D
:1007900001600168C1F340610029FAD0416821F08D
:1007A000F0014160416821F4E06141F48061416001
:1007B000416821F460514160416821F0030141F03A
:1007C00002014160416801F00C010829FAD1064C90
:1007D0002046FFF7EFFD2046BDE81040FFF7F8BDCB
:1007E000002002400010024000A24A047047FEE7C9
:1007F000254808B5816941F001018161816901F0F5
:1008000001010091C16941F08051C161C06900F0EE
:10081000805000901D4801684FF6FF0211401C4AAD
:1008200041F44071114301600068C0F30220C0F13F
:100830000702042A00D90422011D072901D2002041
:1008400000E0C01E01219140491E8140080111496C
:1008500081F8140D1048416821F0E06141F0007109
:100860004160FFF775FFFFF7CDFEFFF7EFFE0B4886
:10087000016841F001010160016A41F0010101627A
:1008800032214163FEE70000001002400CED00E061
:100890000000FA050FE000E000000140002C0140DC
:1008A000000000000404040000080000000800002C
:1008B000D008000800000020040000002801000803
:1008C000D408000804000020640600004401000869
:0408D0000024F4000C
:04000005080000ED02
:00000001FF
